S01300005374616E645F4C696768742E73726563C0
S113000045C0000053C0000051C000004FC00000B4
S11300104DC000004BC0000049C0000047C00000B4
S113002045C0000043C0000041C000003FC00000C4
S11300303DC000003BC0000039C0000037C00000D4
S113004035C0000033C0000031C000002FC00000E4
S11300502DC000002BC0000029C0000027C00000F4
S113006025C0000023C0000021C000001FC0000004
S11300701DC000001BC0000019C0000017C0000014
S113008015C0000013C0000011C0000011241FBEE1
S1130090CFEFD0E1DEBFCDBF21E0A0E0B1E001C0F1
S11300A01D92AD30B207E1F7DDD011C1A9CF81E3D4
S11300B090E0D3D020E049E350E06AE370E081E0CF
S11300C091E094D021E049E350E06AE370E087E0F6
S11300D091E08CC00895CF93DF93EC0180910001EF
S11300E0823009F43DC028F4882351F0813001F1B5
S11300F07AC0833009F44BC0843009F45FC073C004
S113010081E091E080D0813039F460E0CE01A8D064
S113011081E08093000167C087E091E074D0823071
S113012009F061C060E0CE019BD0109200015BC079
S113013081E091E068D0813039F463E0CE0190D061
S113014082E0809300014FC087E091E05CD0823070
S113015009F049C060E0CE0183D01092000143C091
S113016081E091E050D0813039F46FE0CE0178D055
S113017083E08093000137C087E091E044D082306F
S113018091F560E0CE016CD0109200012CC081E0AA
S113019091E039D0813039F46FE3CE0161D084E04D
S11301A08093000120C087E091E02DD08230D9F403
S11301B060E0CE0155D01092000115C081E091E0BD
S11301C022D0813031F46FEFCE014AD01092000179
S11301D00AC087E091E017D0823029F460E0CE01B4
S11301E03FD010920001DF91CF910895FC01CB0123
S11301F07183608353834283248331E0358340E0F9
S1130200622F3EC00895CF93DF93EC016C818A8105
S11302109B8153D0982F81110BC08D81813041F483
S1130220E3ECF9E03197F1F700C000001D8212C041
S1130230992369F08D8181110CC083EC99E00197B9
S1130240F1F700C0000081E08D8382E003C080E00C
S113025001C080E0DF91CF91089561E008C0089566
S113026029C0089524DF82E390E035DFFCCF6130BC
S113027021F42FEFFC0120830895FC0110820895DE
S1130280FC01413059F4208181E090E002C0880FE4
S1130290991F6A95E2F7822B80830895908121E06B
S11302A030E002C0220F331F6A95E2F7209529231C
S11302B020830895FC0160830895FC01808190E00F
S11302C002C0959587956A95E2F781700895F89430
S10502D0FFCF5A
S9030000FC
